:100AFE00464C4150505920424952440047414D45C1
:100B0E00204F5645520000594F5520574F4E00204A
:100B1E0020202020202031202020202031202020A5
:100B2E002020202031202020202031202020202095
:100B3E0020202020202020202020202020202020A7
:100B4E002020203120202020202020312020202075
:100B5E002031202020202020203120202020202065
:100B6E002020202020202020202020202020202077
:030B7E0020202014
:0C0C9100021C0000021E000A021A0001F2
:100BBB007D007BFF7E00120A4C9000007F01120C1F
:050BCB009E7F017E0089
:100BD000E4FDFCC3ED9FEC9E5015E4FBFA0BBB005B
:0F0BE000010ABA04F8BBFBF50DBD00010C80E45F
:010BEF0022E3
:03000300020B816C
:100B8100C0E0C0D075D000C002C003C004C005C021
:100B910006C007E51D451C7007F51C751D01800683
:100BA100751C00751D00120BCCD007D006D005D0E6
:0A0BB10004D003D002D0D0D0E0320F
:0C0C9E008FA0C292D293120BCCC2932202
:0C0CAA008FA0D292D293120BCCC29322E6
:100C4C00780E7C007D007BFF7A0A79FE7E007F0C9B
:100C5C00120A4C900000AF82740E2FF8E6FF600968
:090C6C00120CAAA3120BCC80EDBE
:010C7500225C
:100BF000780E7C007A0B790A7F0B120BBB7F801278
:100C00000C9E800EAF82740E2FF8E6FF6009120C66
:0E0C1000AAA3120BCC80ED7FF47E01020BD064
:100C1E00780E7C007A0B79157F08120BBB7F801241
:100C2E000C9E800EAF82740E2FF8E6FF6009120C38
:0E0C3E00AAA3120BCC80ED7FF47E01020BD036
:100C76007F38120BC9120BC97F80120BC9120C4C9C
:0B0C86007F0C120BC97FF40E020BD094
:10080000E4F508F509F50AF50BF50CF50D7F011275
:100810000C9E120C76E4F51CF51DF508750901F522
:100820001E751F0AF51A751B01D2A8D2AFD288F522
:1008300008F509E4F50CF50DE50D450C70057F8014
:10084000120C9EE50D6401450C70057FC0120C9ED4
:1008500085080A85090BE5092410FFE43508FEC365
:10086000E50B9FE50A9E4003020951E50D450C701A
:1008700030E51D451C7013E50BB5090EE50AB508FA
:1008800009E4F51AF51B7F308014E4F51AF51B74A2
:100890001D250BF582740B350AF583E493FF120CCA
:1008A000AAE51D451C701DE50BB50918E50AB5083C
:1008B00013FE741D250BF582740B3EF583E493B48F
:1008C00031028053E50D6401450C7028E51D64017B
:1008D000451C700EE50BB50909E50AB508047F3023
:1008E000800F744F250BF582740B350AF583E49362
:1008F000FF120CAAE51D6401451C7020E50BB5092B
:100900001BE50AB50816FE744F250BF582740B3EE5
:10091000F583E493B43105120BF08016E50D640104
:10092000450C7022C3E50B942FE50A940040171282
:100930000C1E750800750964750A00750B64750C4A
:1009400000750D64800B050BE50B7002050A0208AB
:1009500056050DE50D7002050CC39402E50C9400DC
:1009600050030208380509E50970020508D39420F0
:0C097000E5089400500302083302080060
:03000000020A727F
:0C0A7200787FE4F6D8FD75811F020AB9F8
:10097C00E709F608DFFA8046E709F208DFFA803E5D
:10098C0088828C83E709F0A3DFFA8032E309F6084A
:10099C00DFFA8078E309F208DFFA807088828C83B2
:1009AC00E309F0A3DFFA806489828A83E0A3F60866
:1009BC00DFFA805889828A83E0A3F208DFFA804C40
:1009CC0080D280FA80C680D4806980F28033801017
:1009DC0080A680EA809A80A880DA80E280CA803380
:1009EC0089828A83ECFAE493A3C8C582C8CCC583F8
:1009FC00CCF0A3C8C582C8CCC583CCDFE9DEE780C8
:100A0C000D89828A83E493A3F608DFF9ECFAA9F046
:100A1C00EDFB2289828A83ECFAE0A3C8C582C8CC9C
:100A2C00C583CCF0A3C8C582C8CCC583CCDFEADEB5
:100A3C00E880DB89828A83E493A3F208DFF980CC17
:100A4C0088F0EF60010E4E60C388F0ED2402B40410
:100A5C000050B9F582EB2402B4040050AF232345B7
:060A6C0082239009CC7307
:100A7E00020800E493A3F8E493A34003F68001F286
:100A8E0008DFF48029E493A3F85407240CC8C33379
:100A9E00C4540F4420C8834004F456800146F6DF48
:100AAE00E4800B0102040810204080900C91E47E3B
:100ABE00019360BCA3FF543F30E509541FFEE4933D
:100ACE00A360010ECF54C025E060A840B8E493A304
:100ADE00FAE493A3F8E493A3C8C582C8CAC583CA2F
:100AEE00F0A3C8C582C8CAC583CADFE9DEE780BEE7
:010C9D000056
:00000001FF
